{
  "contractName": "UserDetails",
  "abi": [
    {
      "constant": true,
      "inputs": [
        {
          "name": "",
          "type": "uint256"
        }
      ],
      "name": "allUsers",
      "outputs": [
        {
          "name": "",
          "type": "address"
        }
      ],
      "payable": false,
      "stateMutability": "view",
      "type": "function"
    },
    {
      "constant": false,
      "inputs": [
        {
          "name": "_address",
          "type": "address"
        },
        {
          "name": "_name",
          "type": "string"
        },
        {
          "name": "_dateOfBirth",
          "type": "string"
        },
        {
          "name": "_age",
          "type": "uint256"
        }
      ],
      "name": "insertUser",
      "outputs": [],
      "payable": false,
      "stateMutability": "nonpayable",
      "type": "function"
    }
  ],
  "bytecode": "0x608060405234801561001057600080fd5b50610392806100206000396000f30060806040526004361061004c576000357c0100000000000000000000000000000000000000000000000000000000900463ffffffff168063a2bdedf414610051578063e7b1db16146100be575b600080fd5b34801561005d57600080fd5b5061007c60048036038101908080359060200190929190505050610197565b604051808273ffffffffffffffffffffffffffffffffffffffff1673ffffffffffffffffffffffffffffffffffffffff16815260200191505060405180910390f35b3480156100ca57600080fd5b50610195600480360381019080803573ffffffffffffffffffffffffffffffffffffffff169060200190929190803590602001908201803590602001908080601f0160208091040260200160405190810160405280939291908181526020018383808284378201915050505050509192919290803590602001908201803590602001908080601f0160208091040260200160405190810160405280939291908181526020018383808284378201915050505050509192919290803590602001909291905050506101d5565b005b6001818154811015156101a657fe5b906000526020600020016000915054906101000a900473ffffffffffffffffffffffffffffffffffffffff1681565b60008060008673ffffffffffffffffffffffffffffffffffffffff1673ffffffffffffffffffffffffffffffffffffffff16815260200190815260200160002090508381600001908051906020019061022f9291906102c1565b50828160010190805190602001906102489291906102c1565b508181600201819055506001808690806001815401808255809150509060018203906000526020600020016000909192909190916101000a81548173ffffffffffffffffffffffffffffffffffffffff021916908373ffffffffffffffffffffffffffffffffffffffff16021790555050505050505050565b828054600181600116156101000203166002900490600052602060002090601f016020900481019282601f1061030257805160ff1916838001178555610330565b82800160010185558215610330579182015b8281111561032f578251825591602001919060010190610314565b5b50905061033d9190610341565b5090565b61036391905b8082111561035f576000816000905550600101610347565b5090565b905600a165627a7a72305820167cc18404df447949ebeaa2253a46937c9617417b46216a1157b21823d9b88e0029",
  "source": "\npragma solidity ^0.4.24;\n\ncontract UserDetails {\n    \n    struct user {\n        string name;\n        string dateOfBirth;\n        uint age;\n    }\n    \n    mapping (address => user) users;\n    address[] public allUsers;\n    \n    function insertUser (address _address, string _name, string _dateOfBirth, uint _age) public {\n        var userDetail = users[_address];\n        userDetail.name = _name;\n        userDetail.dateOfBirth = _dateOfBirth;\n        userDetail.age = _age;\n        allUsers.push(_address) -1;\n    }\n    \n}\n",
  "sourcePath": "/home/rajesh/Desktop/Abi/userdetails/contracts/UserDetails.sol",
  "compiler": {
    "name": "solc",
    "version": "0.4.26+commit.4563c3fc.Emscripten.clang"
  },
  "schemaVersion": "2.0.3",
  "updatedAt": "2019-10-28T06:28:15.976Z"
}